{
  "_format": "hh-sol-artifact-1",
  "contractName": "Property",
  "sourceName": "contracts/Property.sol",
  "abi": [
    {
      "inputs": [
        {
          "internalType": "string",
          "name": "_name",
          "type": "string"
        },
        {
          "internalType": "uint256",
          "name": "_price",
          "type": "uint256"
        }
      ],
      "stateMutability": "nonpayable",
      "type": "constructor"
    },
    {
      "inputs": [],
      "name": "getFullNameWithPrice",
      "outputs": [
        {
          "internalType": "string",
          "name": "",
          "type": "string"
        }
      ],
      "stateMutability": "view",
      "type": "function"
    },
    {
      "inputs": [],
      "name": "getPropertyAddress",
      "outputs": [
        {
          "internalType": "address",
          "name": "",
          "type": "address"
        }
      ],
      "stateMutability": "view",
      "type": "function"
    },
    {
      "inputs": [],
      "name": "name",
      "outputs": [
        {
          "internalType": "string",
          "name": "",
          "type": "string"
        }
      ],
      "stateMutability": "view",
      "type": "function"
    },
    {
      "inputs": [],
      "name": "owner",
      "outputs": [
        {
          "internalType": "address",
          "name": "",
          "type": "address"
        }
      ],
      "stateMutability": "view",
      "type": "function"
    },
    {
      "inputs": [],
      "name": "price",
      "outputs": [
        {
          "internalType": "uint256",
          "name": "",
          "type": "uint256"
        }
      ],
      "stateMutability": "view",
      "type": "function"
    },
    {
      "inputs": [],
      "name": "propertyAddress",
      "outputs": [
        {
          "internalType": "address",
          "name": "",
          "type": "address"
        }
      ],
      "stateMutability": "view",
      "type": "function"
    },
    {
      "inputs": [
        {
          "internalType": "string",
          "name": "_name",
          "type": "string"
        }
      ],
      "name": "setName",
      "outputs": [],
      "stateMutability": "nonpayable",
      "type": "function"
    },
    {
      "inputs": [
        {
          "internalType": "uint256",
          "name": "_price",
          "type": "uint256"
        }
      ],
      "name": "setPrice",
      "outputs": [],
      "stateMutability": "nonpayable",
      "type": "function"
    },
    {
      "inputs": [
        {
          "internalType": "address",
          "name": "newOwner",
          "type": "address"
        }
      ],
      "name": "transferOwnership",
      "outputs": [],
      "stateMutability": "nonpayable",
      "type": "function"
    }
  ],
  "bytecode": "0x60806040523480156200001157600080fd5b5060405162000bff38038062000bff833981016040819052620000349162000087565b600080546001600160a01b031916331790556001620000548382620001f1565b5060025550600380546001600160a01b03191630179055620002bd565b634e487b7160e01b600052604160045260246000fd5b600080604083850312156200009b57600080fd5b82516001600160401b0380821115620000b357600080fd5b818501915085601f830112620000c857600080fd5b815181811115620000dd57620000dd62000071565b604051601f8201601f19908116603f0116810190838211818310171562000108576200010862000071565b816040528281526020935088848487010111156200012557600080fd5b600091505b828210156200014957848201840151818301850152908301906200012a565b6000928101840192909252509401519395939450505050565b600181811c908216806200017757607f821691505b6020821081036200019857634e487b7160e01b600052602260045260246000fd5b50919050565b601f821115620001ec57600081815260208120601f850160051c81016020861015620001c75750805b601f850160051c820191505b81811015620001e857828155600101620001d3565b5050505b505050565b81516001600160401b038111156200020d576200020d62000071565b62000225816200021e845462000162565b846200019e565b602080601f8311600181146200025d5760008415620002445750858301515b600019600386901b1c1916600185901b178555620001e8565b600085815260208120601f198616915b828110156200028e578886015182559484019460019091019084016200026d565b5085821015620002ad5787850151600019600388901b60f8161c191681555b5050505050600190811b01905550565b61093280620002cd6000396000f3fe608060405234801561001057600080fd5b50600436106100935760003560e01c806391b7f5ed1161006657806391b7f5ed146100fc578063a035b1fe14610111578063c47f002714610128578063f2c4769a1461013b578063f2fde38b1461014c57600080fd5b806306fdde0314610098578063636a5c37146100b657806366440d71146100be5780638da5cb5b146100e9575b600080fd5b6100a061015f565b6040516100ad9190610551565b60405180910390f35b6100a06101ed565b6003546100d1906001600160a01b031681565b6040516001600160a01b0390911681526020016100ad565b6000546100d1906001600160a01b031681565b61010f61010a366004610584565b6102c0565b005b61011a60025481565b6040519081526020016100ad565b61010f6101363660046105b3565b6102f8565b6003546001600160a01b03166100d1565b61010f61015a366004610664565b610332565b6001805461016c90610694565b80601f016020809104026020016040519081016040528092919081815260200182805461019890610694565b80156101e55780601f106101ba576101008083540402835291602001916101e5565b820191906000526020600020905b8154815290600101906020018083116101c857829003601f168201915b505050505081565b60606102bb6101fd6002546103d4565b6102b56040518060400160405280600381526020016201016960ed1b8152506001805461022990610694565b80601f016020809104026020016040519081016040528092919081815260200182805461025590610694565b80156102a25780601f10610277576101008083540402835291602001916102a2565b820191906000526020600020905b81548152906001019060200180831161028557829003601f168201915b505050505061050090919063ffffffff16565b90610500565b905090565b6000546001600160a01b031633146102f35760405162461bcd60e51b81526004016102ea906106ce565b60405180910390fd5b600255565b6000546001600160a01b031633146103225760405162461bcd60e51b81526004016102ea906106ce565b600161032e8282610763565b5050565b6000546001600160a01b0316331461035c5760405162461bcd60e51b81526004016102ea906106ce565b6001600160a01b0381166103b25760405162461bcd60e51b815260206004820152601960248201527f496e76616c6964206e6577206f776e657220616464726573730000000000000060448201526064016102ea565b600080546001600160a01b0319166001600160a01b0392909216919091179055565b6060816000036103fb5750506040805180820190915260018152600360fc1b602082015290565b8160005b8115610425578061040f81610839565b915061041e9050600a83610852565b91506103ff565b60008167ffffffffffffffff8111156104405761044061059d565b6040519080825280601f01601f19166020018201604052801561046a576020820181803683370190505b509050815b85156104f757610480600182610874565b9050600061048f600a88610852565b61049a90600a610887565b6104a49088610874565b6104af90603061089e565b905060008160f81b9050808484815181106104cc576104cc6108b7565b60200101906001600160f81b031916908160001a9053506104ee600a89610852565b9750505061046f565b50949350505050565b606082826040516020016105159291906108cd565b60405160208183030381529060405290505b92915050565b60005b83811015610548578181015183820152602001610530565b50506000910152565b602081526000825180602084015261057081604085016020870161052d565b601f01601f19169190910160400192915050565b60006020828403121561059657600080fd5b5035919050565b634e487b7160e01b600052604160045260246000fd5b6000602082840312156105c557600080fd5b813567ffffffffffffffff808211156105dd57600080fd5b818401915084601f8301126105f157600080fd5b8135818111156106035761060361059d565b604051601f8201601f19908116603f0116810190838211818310171561062b5761062b61059d565b8160405282815287602084870101111561064457600080fd5b826020860160208301376000928101602001929092525095945050505050565b60006020828403121561067657600080fd5b81356001600160a01b038116811461068d57600080fd5b9392505050565b600181811c908216806106a857607f821691505b6020821081036106c857634e487b7160e01b600052602260045260246000fd5b50919050565b60208082526026908201527f4f6e6c7920746865206f776e65722063616e20706572666f726d20746869732060408201526530b1ba34b7b760d11b606082015260800190565b601f82111561075e57600081815260208120601f850160051c8101602086101561073b5750805b601f850160051c820191505b8181101561075a57828155600101610747565b5050505b505050565b815167ffffffffffffffff81111561077d5761077d61059d565b6107918161078b8454610694565b84610714565b602080601f8311600181146107c657600084156107ae5750858301515b600019600386901b1c1916600185901b17855561075a565b600085815260208120601f198616915b828110156107f5578886015182559484019460019091019084016107d6565b50858210156108135787850151600019600388901b60f8161c191681555b5050505050600190811b01905550565b634e487b7160e01b600052601160045260246000fd5b60006001820161084b5761084b610823565b5060010190565b60008261086f57634e487b7160e01b600052601260045260246000fd5b500490565b8181038181111561052757610527610823565b808202811582820484141761052757610527610823565b60ff818116838216019081111561052757610527610823565b634e487b7160e01b600052603260045260246000fd5b600083516108df81846020880161052d565b8351908301906108f381836020880161052d565b0194935050505056fea264697066735822122026ee956eca445f255e1dc8a63f5c6a9787e8c1de96bd092adceda2915dd2a18564736f6c63430008110033",
  "linkReferences": {},
  "deployedLinkReferences": {}
}