{
  "_format": "hh-sol-artifact-1",
  "contractName": "PropertyOwnershipRegistry",
  "sourceName": "contracts/PropertyOwnershipRegistry.sol",
  "abi": [
    {
      "anonymous": false,
      "inputs": [
        {
          "indexed": true,
          "internalType": "address",
          "name": "propertyAddress",
          "type": "address"
        },
        {
          "indexed": true,
          "internalType": "address",
          "name": "oldOwner",
          "type": "address"
        },
        {
          "indexed": true,
          "internalType": "address",
          "name": "newOwner",
          "type": "address"
        }
      ],
      "name": "OwnershipTransferred",
      "type": "event"
    },
    {
      "anonymous": false,
      "inputs": [
        {
          "indexed": true,
          "internalType": "address",
          "name": "propertyAddress",
          "type": "address"
        }
      ],
      "name": "PropertyRegistered",
      "type": "event"
    },
    {
      "inputs": [
        {
          "internalType": "uint256",
          "name": "index",
          "type": "uint256"
        }
      ],
      "name": "getFormattedPropertyInfo",
      "outputs": [
        {
          "internalType": "string",
          "name": "",
          "type": "string"
        }
      ],
      "stateMutability": "view",
      "type": "function"
    },
    {
      "inputs": [],
      "name": "getPropertyCount",
      "outputs": [
        {
          "internalType": "uint256",
          "name": "",
          "type": "uint256"
        }
      ],
      "stateMutability": "view",
      "type": "function"
    },
    {
      "inputs": [
        {
          "internalType": "uint256",
          "name": "index",
          "type": "uint256"
        }
      ],
      "name": "getPropertyInfo",
      "outputs": [
        {
          "internalType": "string",
          "name": "",
          "type": "string"
        },
        {
          "internalType": "uint256",
          "name": "",
          "type": "uint256"
        },
        {
          "internalType": "address",
          "name": "",
          "type": "address"
        }
      ],
      "stateMutability": "view",
      "type": "function"
    },
    {
      "inputs": [
        {
          "internalType": "address",
          "name": "",
          "type": "address"
        }
      ],
      "name": "properties",
      "outputs": [
        {
          "internalType": "string",
          "name": "name",
          "type": "string"
        },
        {
          "internalType": "uint256",
          "name": "price",
          "type": "uint256"
        },
        {
          "internalType": "address",
          "name": "propertyAddress",
          "type": "address"
        }
      ],
      "stateMutability": "view",
      "type": "function"
    },
    {
      "inputs": [
        {
          "internalType": "uint256",
          "name": "",
          "type": "uint256"
        }
      ],
      "name": "propertyAddresses",
      "outputs": [
        {
          "internalType": "address",
          "name": "",
          "type": "address"
        }
      ],
      "stateMutability": "view",
      "type": "function"
    },
    {
      "inputs": [
        {
          "internalType": "address",
          "name": "",
          "type": "address"
        }
      ],
      "name": "propertyToOwner",
      "outputs": [
        {
          "internalType": "address",
          "name": "",
          "type": "address"
        }
      ],
      "stateMutability": "view",
      "type": "function"
    },
    {
      "inputs": [
        {
          "internalType": "string",
          "name": "name",
          "type": "string"
        },
        {
          "internalType": "uint256",
          "name": "price",
          "type": "uint256"
        }
      ],
      "name": "registerProperty",
      "outputs": [],
      "stateMutability": "nonpayable",
      "type": "function"
    },
    {
      "inputs": [
        {
          "internalType": "address",
          "name": "propertyAddress",
          "type": "address"
        },
        {
          "internalType": "address",
          "name": "newOwner",
          "type": "address"
        }
      ],
      "name": "transferPropertyOwnership",
      "outputs": [],
      "stateMutability": "payable",
      "type": "function"
    }
  ],
  "bytecode": "0x608060405234801561001057600080fd5b50611c27806100206000396000f3fe608060405260043610620000855760003560e01c80637c53971811620000545780637c5397181462000142578063b9556a401462000169578063cc4b7b8f14620001a7578063ea44e99c14620001e157600080fd5b806325ec77d7146200008a5780633bf4bff114620000c957806340f0a05514620000fd5780637326b9011462000122575b600080fd5b3480156200009757600080fd5b50620000af620000a936600462000b8b565b620001f8565b604051620000c09392919062000bfd565b60405180910390f35b348015620000d657600080fd5b50620000ee620000e836600462000c32565b620002b4565b604051620000c0919062000c4c565b3480156200010a57600080fd5b50620000af6200011c36600462000c32565b62000455565b3480156200012f57600080fd5b50600254604051908152602001620000c0565b3480156200014f57600080fd5b50620001676200016136600462000c77565b62000590565b005b3480156200017657600080fd5b506200018e6200018836600462000c32565b6200071b565b6040516001600160a01b039091168152602001620000c0565b348015620001b457600080fd5b506200018e620001c636600462000b8b565b6000602081905290815260409020546001600160a01b031681565b62000167620001f236600462000d36565b62000746565b600160205260009081526040902080548190620002159062000d6e565b80601f0160208091040260200160405190810160405280929190818152602001828054620002439062000d6e565b8015620002945780601f10620002685761010080835404028352916020019162000294565b820191906000526020600020905b8154815290600101906020018083116200027657829003601f168201915b5050505060018301546002909301549192916001600160a01b0316905083565b6002546060908210620003035760405162461bcd60e51b8152602060048201526012602482015271496e646578206f7574206f662072616e676560701b60448201526064015b60405180910390fd5b600060016000600285815481106200031f576200031f62000daa565b60009182526020808320909101546001600160a01b031683528201929092526040908101909120815160608101909252805482908290620003609062000d6e565b80601f01602080910402602001604051908101604052809291908181526020018280546200038e9062000d6e565b8015620003df5780601f10620003b357610100808354040283529160200191620003df565b820191906000526020600020905b815481529060010190602001808311620003c157829003601f168201915b505050918352505060018201546020808301919091526002909201546001600160a01b03166040909101528101519091506200044e906200042090620009e9565b60408051808201909152600381526201016960ed1b60208201528351620004479162000b31565b9062000b31565b9392505050565b60606000806002805490508410620004a55760405162461bcd60e51b8152602060048201526012602482015271496e646578206f7574206f662072616e676560701b6044820152606401620002fa565b600060028581548110620004bd57620004bd62000daa565b60009182526020808320909101546001600160a01b03168083526001918290526040909220908101548154929350909183908390620004fc9062000d6e565b80601f01602080910402602001604051908101604052809291908181526020018280546200052a9062000d6e565b80156200057b5780601f106200054f576101008083540402835291602001916200057b565b820191906000526020600020905b8154815290600101906020018083116200055d57829003601f168201915b50505050509250935093509350509193909250565b6000825111620005da5760405162461bcd60e51b81526020600482015260146024820152734e616d652063616e6e6f7420626520656d70747960601b6044820152606401620002fa565b60008282604051620005ec9062000b60565b620005f992919062000dc0565b604051809103906000f08015801562000616573d6000803e3d6000fd5b506001600160a01b03811660008181526020818152604080832080546001600160a01b0319163317905580516060810182528881528083018890528082018590529383526001909152902081519293508392829190819062000679908262000e37565b506020820151600180830191909155604092830151600292830180546001600160a01b039283166001600160a01b0319918216179091558354928301845560009384527f405787fa12a823e0f2b7631cc41b3ba8828b3321ca811111fa75cd3aa3bb5ace909201805491871691909216811790915591517f6d503cf7d179b36913e4c1cd4f0686bc547cae7159d4a3e8ea47d7b51e3e81a79190a25050505050565b600281815481106200072c57600080fd5b6000918252602090912001546001600160a01b0316905081565b6001600160a01b0382166200079e5760405162461bcd60e51b815260206004820152601860248201527f496e76616c69642070726f7065727479206164647265737300000000000000006044820152606401620002fa565b6001600160a01b03828116600090815260208190526040902054163314620008095760405162461bcd60e51b815260206004820152601b60248201527f596f7520646f6e2774206f776e20746869732070726f706572747900000000006044820152606401620002fa565b60008290506000816001600160a01b031663a035b1fe6040518163ffffffff1660e01b8152600401602060405180830381865afa1580156200084f573d6000803e3d6000fd5b505050506040513d601f19601f8201168201806040525081019062000875919062000f04565b9050803414620008dc5760405162461bcd60e51b815260206004820152602b60248201527f5072696365206d757374206265207061696420746f207472616e73666572207460448201526a68652070726f706572747960a81b6064820152608401620002fa565b60405163f2fde38b60e01b81526001600160a01b03848116600483015283169063f2fde38b90602401600060405180830381600087803b1580156200092057600080fd5b505af115801562000935573d6000803e3d6000fd5b5050506001600160a01b0380861660009081526020819052604080822080548885166001600160a01b031982161790915590519216925082913480156108fc0292909190818181858888f1935050505015801562000997573d6000803e3d6000fd5b50836001600160a01b0316816001600160a01b0316866001600160a01b03167fc8894f26f396ce8c004245c8b7cd1b92103a6e4302fcbab883987149ac01b7ec60405160405180910390a45050505050565b60608160000362000a115750506040805180820190915260018152600360fc1b602082015290565b8160005b811562000a41578062000a288162000f34565b915062000a399050600a8362000f50565b915062000a15565b60008167ffffffffffffffff81111562000a5f5762000a5f62000c61565b6040519080825280601f01601f19166020018201604052801562000a8a576020820181803683370190505b509050815b851562000b285762000aa360018262000f73565b9050600062000ab4600a8862000f50565b62000ac190600a62000f89565b62000acd908862000f73565b62000ada90603062000fa3565b905060008160f81b90508084848151811062000afa5762000afa62000daa565b60200101906001600160f81b031916908160001a90535062000b1e600a8962000f50565b9750505062000a8f565b50949350505050565b6060828260405160200162000b4892919062000fbf565b60405160208183030381529060405290505b92915050565b610bff8062000ff383390190565b80356001600160a01b038116811462000b8657600080fd5b919050565b60006020828403121562000b9e57600080fd5b6200044e8262000b6e565b60005b8381101562000bc657818101518382015260200162000bac565b50506000910152565b6000815180845262000be981602086016020860162000ba9565b601f01601f19169290920160200192915050565b60608152600062000c12606083018662000bcf565b6020830194909452506001600160a01b0391909116604090910152919050565b60006020828403121562000c4557600080fd5b5035919050565b6020815260006200044e602083018462000bcf565b634e487b7160e01b600052604160045260246000fd5b6000806040838503121562000c8b57600080fd5b823567ffffffffffffffff8082111562000ca457600080fd5b818501915085601f83011262000cb957600080fd5b81358181111562000cce5762000cce62000c61565b604051601f8201601f19908116603f0116810190838211818310171562000cf95762000cf962000c61565b8160405282815288602084870101111562000d1357600080fd5b826020860160208301376000602093820184015298969091013596505050505050565b6000806040838503121562000d4a57600080fd5b62000d558362000b6e565b915062000d656020840162000b6e565b90509250929050565b600181811c9082168062000d8357607f821691505b60208210810362000da457634e487b7160e01b600052602260045260246000fd5b50919050565b634e487b7160e01b600052603260045260246000fd5b60408152600062000dd5604083018562000bcf565b90508260208301529392505050565b601f82111562000e3257600081815260208120601f850160051c8101602086101562000e0d5750805b601f850160051c820191505b8181101562000e2e5782815560010162000e19565b5050505b505050565b815167ffffffffffffffff81111562000e545762000e5462000c61565b62000e6c8162000e65845462000d6e565b8462000de4565b602080601f83116001811462000ea4576000841562000e8b5750858301515b600019600386901b1c1916600185901b17855562000e2e565b600085815260208120601f198616915b8281101562000ed55788860151825594840194600190910190840162000eb4565b508582101562000ef45787850151600019600388901b60f8161c191681555b5050505050600190811b01905550565b60006020828403121562000f1757600080fd5b5051919050565b634e487b7160e01b600052601160045260246000fd5b60006001820162000f495762000f4962000f1e565b5060010190565b60008262000f6e57634e487b7160e01b600052601260045260246000fd5b500490565b8181038181111562000b5a5762000b5a62000f1e565b808202811582820484141762000b5a5762000b5a62000f1e565b60ff818116838216019081111562000b5a5762000b5a62000f1e565b6000835162000fd381846020880162000ba9565b83519083019062000fe981836020880162000ba9565b0194935050505056fe60806040523480156200001157600080fd5b5060405162000bff38038062000bff833981016040819052620000349162000087565b600080546001600160a01b031916331790556001620000548382620001f1565b5060025550600380546001600160a01b03191630179055620002bd565b634e487b7160e01b600052604160045260246000fd5b600080604083850312156200009b57600080fd5b82516001600160401b0380821115620000b357600080fd5b818501915085601f830112620000c857600080fd5b815181811115620000dd57620000dd62000071565b604051601f8201601f19908116603f0116810190838211818310171562000108576200010862000071565b816040528281526020935088848487010111156200012557600080fd5b600091505b828210156200014957848201840151818301850152908301906200012a565b6000928101840192909252509401519395939450505050565b600181811c908216806200017757607f821691505b6020821081036200019857634e487b7160e01b600052602260045260246000fd5b50919050565b601f821115620001ec57600081815260208120601f850160051c81016020861015620001c75750805b601f850160051c820191505b81811015620001e857828155600101620001d3565b5050505b505050565b81516001600160401b038111156200020d576200020d62000071565b62000225816200021e845462000162565b846200019e565b602080601f8311600181146200025d5760008415620002445750858301515b600019600386901b1c1916600185901b178555620001e8565b600085815260208120601f198616915b828110156200028e578886015182559484019460019091019084016200026d565b5085821015620002ad5787850151600019600388901b60f8161c191681555b5050505050600190811b01905550565b61093280620002cd6000396000f3fe608060405234801561001057600080fd5b50600436106100935760003560e01c806391b7f5ed1161006657806391b7f5ed146100fc578063a035b1fe14610111578063c47f002714610128578063f2c4769a1461013b578063f2fde38b1461014c57600080fd5b806306fdde0314610098578063636a5c37146100b657806366440d71146100be5780638da5cb5b146100e9575b600080fd5b6100a061015f565b6040516100ad9190610551565b60405180910390f35b6100a06101ed565b6003546100d1906001600160a01b031681565b6040516001600160a01b0390911681526020016100ad565b6000546100d1906001600160a01b031681565b61010f61010a366004610584565b6102c0565b005b61011a60025481565b6040519081526020016100ad565b61010f6101363660046105b3565b6102f8565b6003546001600160a01b03166100d1565b61010f61015a366004610664565b610332565b6001805461016c90610694565b80601f016020809104026020016040519081016040528092919081815260200182805461019890610694565b80156101e55780601f106101ba576101008083540402835291602001916101e5565b820191906000526020600020905b8154815290600101906020018083116101c857829003601f168201915b505050505081565b60606102bb6101fd6002546103d4565b6102b56040518060400160405280600381526020016201016960ed1b8152506001805461022990610694565b80601f016020809104026020016040519081016040528092919081815260200182805461025590610694565b80156102a25780601f10610277576101008083540402835291602001916102a2565b820191906000526020600020905b81548152906001019060200180831161028557829003601f168201915b505050505061050090919063ffffffff16565b90610500565b905090565b6000546001600160a01b031633146102f35760405162461bcd60e51b81526004016102ea906106ce565b60405180910390fd5b600255565b6000546001600160a01b031633146103225760405162461bcd60e51b81526004016102ea906106ce565b600161032e8282610763565b5050565b6000546001600160a01b0316331461035c5760405162461bcd60e51b81526004016102ea906106ce565b6001600160a01b0381166103b25760405162461bcd60e51b815260206004820152601960248201527f496e76616c6964206e6577206f776e657220616464726573730000000000000060448201526064016102ea565b600080546001600160a01b0319166001600160a01b0392909216919091179055565b6060816000036103fb5750506040805180820190915260018152600360fc1b602082015290565b8160005b8115610425578061040f81610839565b915061041e9050600a83610852565b91506103ff565b60008167ffffffffffffffff8111156104405761044061059d565b6040519080825280601f01601f19166020018201604052801561046a576020820181803683370190505b509050815b85156104f757610480600182610874565b9050600061048f600a88610852565b61049a90600a610887565b6104a49088610874565b6104af90603061089e565b905060008160f81b9050808484815181106104cc576104cc6108b7565b60200101906001600160f81b031916908160001a9053506104ee600a89610852565b9750505061046f565b50949350505050565b606082826040516020016105159291906108cd565b60405160208183030381529060405290505b92915050565b60005b83811015610548578181015183820152602001610530565b50506000910152565b602081526000825180602084015261057081604085016020870161052d565b601f01601f19169190910160400192915050565b60006020828403121561059657600080fd5b5035919050565b634e487b7160e01b600052604160045260246000fd5b6000602082840312156105c557600080fd5b813567ffffffffffffffff808211156105dd57600080fd5b818401915084601f8301126105f157600080fd5b8135818111156106035761060361059d565b604051601f8201601f19908116603f0116810190838211818310171561062b5761062b61059d565b8160405282815287602084870101111561064457600080fd5b826020860160208301376000928101602001929092525095945050505050565b60006020828403121561067657600080fd5b81356001600160a01b038116811461068d57600080fd5b9392505050565b600181811c908216806106a857607f821691505b6020821081036106c857634e487b7160e01b600052602260045260246000fd5b50919050565b60208082526026908201527f4f6e6c7920746865206f776e65722063616e20706572666f726d20746869732060408201526530b1ba34b7b760d11b606082015260800190565b601f82111561075e57600081815260208120601f850160051c8101602086101561073b5750805b601f850160051c820191505b8181101561075a57828155600101610747565b5050505b505050565b815167ffffffffffffffff81111561077d5761077d61059d565b6107918161078b8454610694565b84610714565b602080601f8311600181146107c657600084156107ae5750858301515b600019600386901b1c1916600185901b17855561075a565b600085815260208120601f198616915b828110156107f5578886015182559484019460019091019084016107d6565b50858210156108135787850151600019600388901b60f8161c191681555b5050505050600190811b01905550565b634e487b7160e01b600052601160045260246000fd5b60006001820161084b5761084b610823565b5060010190565b60008261086f57634e487b7160e01b600052601260045260246000fd5b500490565b8181038181111561052757610527610823565b808202811582820484141761052757610527610823565b60ff818116838216019081111561052757610527610823565b634e487b7160e01b600052603260045260246000fd5b600083516108df81846020880161052d565b8351908301906108f381836020880161052d565b0194935050505056fea264697066735822122026ee956eca445f255e1dc8a63f5c6a9787e8c1de96bd092adceda2915dd2a18564736f6c63430008110033a2646970667358221220d3cb9465618075a659c1455bc3191a617ece31aafa24873651c284280426723264736f6c63430008110033",
  "linkReferences": {},
  "deployedLinkReferences": {}
}